{
  "contractName": "Payroll",
  "abi": [
    {
      "constant": true,
      "inputs": [
        {
          "name": "",
          "type": "address"
        }
      ],
      "name": "employeeMapping",
      "outputs": [
        {
          "name": "employeeAddress",
          "type": "address"
        },
        {
          "name": "salary",
          "type": "uint256"
        },
        {
          "name": "lastPayday",
          "type": "uint256"
        }
      ],
      "payable": false,
      "stateMutability": "view",
      "type": "function"
    },
    {
      "constant": true,
      "inputs": [],
      "name": "owner",
      "outputs": [
        {
          "name": "",
          "type": "address"
        }
      ],
      "payable": false,
      "stateMutability": "view",
      "type": "function"
    },
    {
      "constant": false,
      "inputs": [
        {
          "name": "newOwner",
          "type": "address"
        }
      ],
      "name": "transferOwnership",
      "outputs": [],
      "payable": false,
      "stateMutability": "nonpayable",
      "type": "function"
    },
    {
      "anonymous": false,
      "inputs": [
        {
          "indexed": true,
          "name": "previousOwner",
          "type": "address"
        },
        {
          "indexed": true,
          "name": "newOwner",
          "type": "address"
        }
      ],
      "name": "OwnershipTransferred",
      "type": "event"
    },
    {
      "constant": false,
      "inputs": [
        {
          "name": "addr",
          "type": "address"
        },
        {
          "name": "sal",
          "type": "uint256"
        }
      ],
      "name": "addEmployee",
      "outputs": [],
      "payable": false,
      "stateMutability": "nonpayable",
      "type": "function"
    },
    {
      "constant": false,
      "inputs": [
        {
          "name": "addr",
          "type": "address"
        }
      ],
      "name": "removeEmployee",
      "outputs": [],
      "payable": false,
      "stateMutability": "nonpayable",
      "type": "function"
    },
    {
      "constant": false,
      "inputs": [
        {
          "name": "oldAddress",
          "type": "address"
        },
        {
          "name": "newAddresss",
          "type": "address"
        },
        {
          "name": "sal",
          "type": "uint256"
        }
      ],
      "name": "updateEmployee",
      "outputs": [],
      "payable": false,
      "stateMutability": "nonpayable",
      "type": "function"
    },
    {
      "constant": false,
      "inputs": [
        {
          "name": "oldAddress",
          "type": "address"
        },
        {
          "name": "newAddresss",
          "type": "address"
        }
      ],
      "name": "changePaymentAddress",
      "outputs": [],
      "payable": false,
      "stateMutability": "nonpayable",
      "type": "function"
    },
    {
      "constant": true,
      "inputs": [],
      "name": "calculateRunway",
      "outputs": [
        {
          "name": "",
          "type": "uint256"
        }
      ],
      "payable": false,
      "stateMutability": "view",
      "type": "function"
    },
    {
      "constant": false,
      "inputs": [],
      "name": "hasEnoughFund",
      "outputs": [
        {
          "name": "",
          "type": "bool"
        }
      ],
      "payable": false,
      "stateMutability": "nonpayable",
      "type": "function"
    },
    {
      "constant": false,
      "inputs": [],
      "name": "addFund",
      "outputs": [
        {
          "name": "",
          "type": "uint256"
        }
      ],
      "payable": true,
      "stateMutability": "payable",
      "type": "function"
    },
    {
      "constant": false,
      "inputs": [],
      "name": "getPaid",
      "outputs": [],
      "payable": false,
      "stateMutability": "nonpayable",
      "type": "function"
    },
    {
      "constant": true,
      "inputs": [
        {
          "name": "addr",
          "type": "address"
        }
      ],
      "name": "getAddressBalance",
      "outputs": [
        {
          "name": "",
          "type": "uint256"
        }
      ],
      "payable": false,
      "stateMutability": "view",
      "type": "function"
    }
  ],
  "bytecode": "0x60606040526000600355336000806101000a81548173ffffffffffffffffffffffffffffffffffffffff021916908373ffffffffffffffffffffffffffffffffffffffff16021790555061101f806100586000396000f3006060604052600436106100ba576000357c0100000000000000000000000000000000000000000000000000000000900463ffffffff16806323fed09e146100bf57806335046722146100ec5780633b6d5b48146101395780634ec19512146101c05780638da5cb5b146101e9578063a2f09dfa1461023e578063bc456c421461025c578063c8cc895d146102b4578063cf41d6f814610315578063d108177a1461032a578063e7fd9a1314610363578063f2fde38b146103a5575b600080fd5b34156100ca57600080fd5b6100d26103de565b604051808215151515815260200191505060405180910390f35b34156100f757600080fd5b610123600480803573ffffffffffffffffffffffffffffffffffffffff169060200190919050506103ef565b6040518082815260200191505060405180910390f35b341561014457600080fd5b610170600480803573ffffffffffffffffffffffffffffffffffffffff16906020019091905050610410565b604051808473ffffffffffffffffffffffffffffffffffffffff1673ffffffffffffffffffffffffffffffffffffffff168152602001838152602001828152602001935050505060405180910390f35b34156101cb57600080fd5b6101d361045a565b6040518082815260200191505060405180910390f35b34156101f457600080fd5b6101fc610483565b604051808273ffffffffffffffffffffffffffffffffffffffff1673ffffffffffffffffffffffffffffffffffffffff16815260200191505060405180910390f35b6102466104a8565b6040518082815260200191505060405180910390f35b341561026757600080fd5b6102b2600480803573ffffffffffffffffffffffffffffffffffffffff1690602001909190803573ffffffffffffffffffffffffffffffffffffffff169060200190919050506104c7565b005b34156102bf57600080fd5b610313600480803573ffffffffffffffffffffffffffffffffffffffff1690602001909190803573ffffffffffffffffffffffffffffffffffffffff1690602001909190803590602001909190505061063d565b005b341561032057600080fd5b61032861080d565b005b341561033557600080fd5b610361600480803573ffffffffffffffffffffffffffffffffffffffff169060200190919050506109d3565b005b341561036e57600080fd5b6103a3600480803573ffffffffffffffffffffffffffffffffffffffff16906020019091908035906020019091905050610c1c565b005b34156103b057600080fd5b6103dc600480803573ffffffffffffffffffffffffffffffffffffffff16906020019091905050610d85565b005b6000806103e961045a565b11905090565b60008173ffffffffffffffffffffffffffffffffffffffff16319050919050565b60016020528060005260406000206000915090508060000160009054906101000a900473ffffffffffffffffffffffffffffffffffffffff16908060010154908060020154905083565b600080610466306103ef565b905061047d60035482610eda90919063ffffffff16565b91505090565b6000809054906101000a900473ffffffffffffffffffffffffffffffffffffffff1681565b60003073ffffffffffffffffffffffffffffffffffffffff1631905090565b60008060009054906101000a900473ffffffffffffffffffffffffffffffffffffffff1673ffffffffffffffffffffffffffffffffffffffff163373ffffffffffffffffffffffffffffffffffffffff1614151561052457600080fd5b826000600160008373ffffffffffffffffffffffffffffffffffffffff1673ffffffffffffffffffffffffffffffffffffffff168152602001908152602001600020905060008160000160009054906101000a900473ffffffffffffffffffffffffffffffffffffffff1673ffffffffffffffffffffffffffffffffffffffff16141515156105b257600080fd5b600160008673ffffffffffffffffffffffffffffffffffffffff1673ffffffffffffffffffffffffffffffffffffffff1681526020019081526020016000209250838360000160006101000a81548173ffffffffffffffffffffffffffffffffffffffff021916908373ffffffffffffffffffffffffffffffffffffffff1602179055505050505050565b6000806000809054906101000a900473ffffffffffffffffffffffffffffffffffffffff1673ffffffffffffffffffffffffffffffffffffffff163373ffffffffffffffffffffffffffffffffffffffff1614151561069b57600080fd5b846000600160008373ffffffffffffffffffffffffffffffffffffffff1673ffffffffffffffffffffffffffffffffffffffff168152602001908152602001600020905060008160000160009054906101000a900473ffffffffffffffffffffffffffffffffffffffff1673ffffffffffffffffffffffffffffffffffffffff161415151561072957600080fd5b600160008873ffffffffffffffffffffffffffffffffffffffff1673ffffffffffffffffffffffffffffffffffffffff1681526020019081526020016000209350610785670de0b6b3a764000086610ef590919063ffffffff16565b92506107b2836107a48660010154600354610f3090919063ffffffff16565b610f4990919063ffffffff16565b600381905550858460000160006101000a81548173ffffffffffffffffffffffffffffffffffffffff021916908373ffffffffffffffffffffffffffffffffffffffff16021790555082846001018190555050505050505050565b6000806000336000600160008373ffffffffffffffffffffffffffffffffffffffff1673ffffffffffffffffffffffffffffffffffffffff168152602001908152602001600020905060008160000160009054906101000a900473ffffffffffffffffffffffffffffffffffffffff1673ffffffffffffffffffffffffffffffffffffffff16141515156108a057600080fd5b600160003373ffffffffffffffffffffffffffffffffffffffff1673ffffffffffffffffffffffffffffffffffffffff16815260200190815260200160002094506108f8856002015442610f3090919063ffffffff16565b9350601e841015151561090a57600080fd5b61091e601e85610eda90919063ffffffff16565b925061094a610937601e85610ef590919063ffffffff16565b8660020154610f4990919063ffffffff16565b85600201819055508460000160009054906101000a900473ffffffffffffffffffffffffffffffffffffffff1673ffffffffffffffffffffffffffffffffffffffff166108fc6109a7858860010154610ef590919063ffffffff16565b9081150290604051600060405180830381858888f1935050505015156109cc57600080fd5b5050505050565b60008060009054906101000a900473ffffffffffffffffffffffffffffffffffffffff1673ffffffffffffffffffffffffffffffffffffffff163373ffffffffffffffffffffffffffffffffffffffff16141515610a3057600080fd5b816000600160008373ffffffffffffffffffffffffffffffffffffffff1673ffffffffffffffffffffffffffffffffffffffff168152602001908152602001600020905060008160000160009054906101000a900473ffffffffffffffffffffffffffffffffffffffff1673ffffffffffffffffffffffffffffffffffffffff1614151515610abe57600080fd5b600160008573ffffffffffffffffffffffffffffffffffffffff1673ffffffffffffffffffffffffffffffffffffffff1681526020019081526020016000209250610b188360010154600354610f3090919063ffffffff16565b600381905550610b9d83606060405190810160405290816000820160009054906101000a900473ffffffffffffffffffffffffffffffffffffffff1673ffffffffffffffffffffffffffffffffffffffff1673ffffffffffffffffffffffffffffffffffffffff16815260200160018201548152602001600282015481525050610f67565b600160008573ffffffffffffffffffffffffffffffffffffffff1673ffffffffffffffffffffffffffffffffffffffff168152602001908152602001600020600080820160006101000a81549073ffffffffffffffffffffffffffffffffffffffff021916905560018201600090556002820160009055505050505050565b60008060009054906101000a900473ffffffffffffffffffffffffffffffffffffffff1673ffffffffffffffffffffffffffffffffffffffff163373ffffffffffffffffffffffffffffffffffffffff16141515610c7957600080fd5b610c94670de0b6b3a764000083610ef590919063ffffffff16565b9050610cab81600354610f4990919063ffffffff16565b6003819055506060604051908101604052808473ffffffffffffffffffffffffffffffffffffffff16815260200182815260200142815250600160008573ffffffffffffffffffffffffffffffffffffffff1673ffffffffffffffffffffffffffffffffffffffff16815260200190815260200160002060008201518160000160006101000a81548173ffffffffffffffffffffffffffffffffffffffff021916908373ffffffffffffffffffffffffffffffffffffffff1602179055506020820151816001015560408201518160020155905050505050565b6000809054906101000a900473ffffffffffffffffffffffffffffffffffffffff1673ffffffffffffffffffffffffffffffffffffffff163373ffffffffffffffffffffffffffffffffffffffff16141515610de057600080fd5b600073ffffffffffffffffffffffffffffffffffffffff168173ffffffffffffffffffffffffffffffffffffffff1614151515610e1c57600080fd5b8073ffffffffffffffffffffffffffffffffffffffff166000809054906101000a900473ffffffffffffffffffffffffffffffffffffffff1673ffffffffffffffffffffffffffffffffffffffff167f8be0079c531659141344cd1fd0a4f28419497f9722a3daafe3b4186f6b6457e060405160405180910390a3806000806101000a81548173ffffffffffffffffffffffffffffffffffffffff021916908373ffffffffffffffffffffffffffffffffffffffff16021790555050565b6000808284811515610ee857fe5b0490508091505092915050565b6000806000841415610f0a5760009150610f29565b8284029050828482811515610f1b57fe5b04141515610f2557fe5b8091505b5092915050565b6000828211151515610f3e57fe5b818303905092915050565b6000808284019050838110151515610f5d57fe5b8091505092915050565b6000610fa9601e610f9b610f88856040015142610f3090919063ffffffff16565b8560200151610ef590919063ffffffff16565b610eda90919063ffffffff16565b9050816000015173ffffffffffffffffffffffffffffffffffffffff166108fc829081150290604051600060405180830381858888f193505050501515610fef57600080fd5b50505600a165627a7a72305820d92ebc9a2b52a8c3cfa92801dd0c2e441329dc2ae3fce8c47ed5a4c41771a9780029",
  "source": "pragma solidity ^0.4.14;\nimport './SafeMath.sol';\nimport './Ownable.sol';\n\ncontract Payroll is Ownable{\n    \n    using SafeMath for uint;\n    \n    struct Employee{\n        address employeeAddress;\n        uint salary;\n        uint lastPayday;\n    }\n   mapping(address => Employee) public employeeMapping;\n   uint constant payDuration = 30 seconds;\n   address ownerAddress;\n   uint totalSalary = 0;\n   \n   \n   modifier employeeExist(address addr){\n       var employee = employeeMapping[addr];\n       require(employee.employeeAddress != 0x0);\n       _;\n   }\n   \n   function _partialPay(Employee emp) private{\n       uint totalSalary = emp.salary.mul(now.sub(emp.lastPayday)).div(payDuration);\n       \n       emp.employeeAddress.transfer(totalSalary);\n   }\n  \n   function addEmployee(address addr,uint sal) onlyOwner {\n      \n       uint oneSalary = sal.mul(1 ether);\n       totalSalary = totalSalary.add(oneSalary);\n       employeeMapping[addr] = Employee(addr,oneSalary,now);\n   }\n   function removeEmployee(address addr) onlyOwner employeeExist(addr){\n       var employee = employeeMapping[addr];\n       totalSalary = totalSalary.sub(employee.salary);\n       _partialPay(employee);\n       delete(employeeMapping[addr]);\n      \n   }\n   function updateEmployee(address oldAddress,address newAddresss,uint sal) onlyOwner employeeExist(oldAddress){\n\n        var employee = employeeMapping[oldAddress];\n        uint oneSalary = sal.mul(1 ether);\n        totalSalary = totalSalary.sub(employee.salary).add(oneSalary);\n        employee.employeeAddress = newAddresss;\n        employee.salary = oneSalary;\n        \n   }\n   function changePaymentAddress(address oldAddress,address newAddresss) onlyOwner employeeExist(oldAddress){\n       var employee = employeeMapping[oldAddress];\n       employee.employeeAddress = newAddresss;\n   }\n\n   \n   function calculateRunway() view returns(uint){\n     \n       uint selfbalance = getAddressBalance(this);\n       return selfbalance.div(totalSalary);\n   }\n    function hasEnoughFund() returns(bool){\n       return calculateRunway() > 0;\n   }\n  \n   function addFund() payable  returns(uint){\n       \n       return this.balance;\n   }\n   \n   \n   function getPaid() employeeExist(msg.sender) {\n       var employee = employeeMapping[msg.sender];\n       uint intervalTime = now.sub(employee.lastPayday);\n       require(intervalTime >= payDuration);\n       \n       uint times = intervalTime.div(payDuration);\n       employee.lastPayday = employee.lastPayday.add(times.mul(payDuration));\n       employee.employeeAddress.transfer(employee.salary.mul(times));\n   }\n   \n   function getAddressBalance(address addr) public view returns(uint){\n       return addr.balance;\n   }\n  \n}",
  "sourcePath": "/home/juicebox/payroll/contracts/Payroll.sol",
  "compiler": {
    "name": "solc",
    "version": "0.4.19+commit.c4cbbb05.Emscripten.clang"
  },
  "schemaVersion": "2.0.0",
  "updatedAt": "2018-03-25T12:05:09.968Z"
}