{
  "contractName": "Payroll",
  "abi": [
    {
      "constant": true,
      "inputs": [],
      "name": "owner",
      "outputs": [
        {
          "name": "",
          "type": "address"
        }
      ],
      "payable": false,
      "stateMutability": "view",
      "type": "function"
    },
    {
      "constant": true,
      "inputs": [
        {
          "name": "",
          "type": "uint256"
        }
      ],
      "name": "employeeList",
      "outputs": [
        {
          "name": "",
          "type": "address"
        }
      ],
      "payable": false,
      "stateMutability": "view",
      "type": "function"
    },
    {
      "constant": true,
      "inputs": [
        {
          "name": "",
          "type": "address"
        }
      ],
      "name": "employees",
      "outputs": [
        {
          "name": "id",
          "type": "address"
        },
        {
          "name": "salary",
          "type": "uint256"
        },
        {
          "name": "lastPayday",
          "type": "uint256"
        }
      ],
      "payable": false,
      "stateMutability": "view",
      "type": "function"
    },
    {
      "constant": false,
      "inputs": [
        {
          "name": "newOwner",
          "type": "address"
        }
      ],
      "name": "transferOwnership",
      "outputs": [],
      "payable": false,
      "stateMutability": "nonpayable",
      "type": "function"
    },
    {
      "anonymous": false,
      "inputs": [
        {
          "indexed": false,
          "name": "employee",
          "type": "address"
        }
      ],
      "name": "NewEmployee",
      "type": "event"
    },
    {
      "anonymous": false,
      "inputs": [
        {
          "indexed": false,
          "name": "employee",
          "type": "address"
        }
      ],
      "name": "UpdateEmployee",
      "type": "event"
    },
    {
      "anonymous": false,
      "inputs": [
        {
          "indexed": false,
          "name": "employee",
          "type": "address"
        }
      ],
      "name": "RemoveEmployee",
      "type": "event"
    },
    {
      "anonymous": false,
      "inputs": [
        {
          "indexed": false,
          "name": "balance",
          "type": "uint256"
        }
      ],
      "name": "NewFund",
      "type": "event"
    },
    {
      "anonymous": false,
      "inputs": [
        {
          "indexed": false,
          "name": "employee",
          "type": "address"
        }
      ],
      "name": "GetPaid",
      "type": "event"
    },
    {
      "anonymous": false,
      "inputs": [
        {
          "indexed": true,
          "name": "previousOwner",
          "type": "address"
        },
        {
          "indexed": true,
          "name": "newOwner",
          "type": "address"
        }
      ],
      "name": "OwnershipTransferred",
      "type": "event"
    },
    {
      "constant": false,
      "inputs": [
        {
          "name": "employeeId",
          "type": "address"
        },
        {
          "name": "salary",
          "type": "uint256"
        }
      ],
      "name": "addEmployee",
      "outputs": [],
      "payable": false,
      "stateMutability": "nonpayable",
      "type": "function"
    },
    {
      "constant": false,
      "inputs": [
        {
          "name": "employeeId",
          "type": "address"
        }
      ],
      "name": "removeEmployee",
      "outputs": [],
      "payable": false,
      "stateMutability": "nonpayable",
      "type": "function"
    },
    {
      "constant": false,
      "inputs": [
        {
          "name": "employeeId",
          "type": "address"
        },
        {
          "name": "salary",
          "type": "uint256"
        }
      ],
      "name": "updateEmployee",
      "outputs": [],
      "payable": false,
      "stateMutability": "nonpayable",
      "type": "function"
    },
    {
      "constant": false,
      "inputs": [
        {
          "name": "employeeId",
          "type": "address"
        }
      ],
      "name": "changePaymentAddress",
      "outputs": [],
      "payable": false,
      "stateMutability": "nonpayable",
      "type": "function"
    },
    {
      "constant": false,
      "inputs": [],
      "name": "addFund",
      "outputs": [
        {
          "name": "",
          "type": "uint256"
        }
      ],
      "payable": true,
      "stateMutability": "payable",
      "type": "function"
    },
    {
      "constant": true,
      "inputs": [],
      "name": "getOwnerinfo",
      "outputs": [
        {
          "name": "owneraddress",
          "type": "address"
        },
        {
          "name": "balance",
          "type": "uint256"
        },
        {
          "name": "salarytotal",
          "type": "uint256"
        }
      ],
      "payable": false,
      "stateMutability": "view",
      "type": "function"
    },
    {
      "constant": true,
      "inputs": [
        {
          "name": "employeeId",
          "type": "address"
        }
      ],
      "name": "getEmployeeinfo",
      "outputs": [
        {
          "name": "salary",
          "type": "uint256"
        },
        {
          "name": "lastPayday",
          "type": "uint256"
        }
      ],
      "payable": false,
      "stateMutability": "view",
      "type": "function"
    },
    {
      "constant": true,
      "inputs": [
        {
          "name": "index",
          "type": "uint256"
        }
      ],
      "name": "checkEmployee",
      "outputs": [
        {
          "name": "employeeId",
          "type": "address"
        },
        {
          "name": "salary",
          "type": "uint256"
        },
        {
          "name": "lastPayday",
          "type": "uint256"
        }
      ],
      "payable": false,
      "stateMutability": "view",
      "type": "function"
    },
    {
      "constant": true,
      "inputs": [],
      "name": "calculateRunway",
      "outputs": [
        {
          "name": "",
          "type": "uint256"
        }
      ],
      "payable": false,
      "stateMutability": "view",
      "type": "function"
    },
    {
      "constant": true,
      "inputs": [],
      "name": "hasEnoughFund",
      "outputs": [
        {
          "name": "",
          "type": "bool"
        }
      ],
      "payable": false,
      "stateMutability": "view",
      "type": "function"
    },
    {
      "constant": false,
      "inputs": [],
      "name": "getPaid",
      "outputs": [],
      "payable": false,
      "stateMutability": "nonpayable",
      "type": "function"
    },
    {
      "constant": true,
      "inputs": [],
      "name": "getInfo",
      "outputs": [
        {
          "name": "balance",
          "type": "uint256"
        },
        {
          "name": "runway",
          "type": "uint256"
        },
        {
          "name": "totalemployees",
          "type": "uint256"
        }
      ],
      "payable": false,
      "stateMutability": "view",
      "type": "function"
    }
  ],
  "bytecode": "0x606060405260006003556000600455336000806101000a81548173ffffffffffffffffffffffffffffffffffffffff021916908373ffffffffffffffffffffffffffffffffffffffff160217905550611d5f8061005d6000396000f3006060604052600436106100e6576000357c0100000000000000000000000000000000000000000000000000000000900463ffffffff16806323fed09e146100eb5780634ec19512146101185780635a9b0b89146101415780635e91d8ec146101785780637124d613146101ba578063806feabe146101f35780638a8630f5146102475780638da5cb5b146102aa57806396b02696146102ff578063a2f09dfa14610370578063c3b2d07a1461038e578063cf41d6f8146103f1578063d067894714610406578063d108177a1461048d578063e7fd9a13146104c6578063f2fde38b14610508575b600080fd5b34156100f657600080fd5b6100fe610541565b604051808215151515815260200191505060405180910390f35b341561012357600080fd5b61012b610552565b6040518082815260200191505060405180910390f35b341561014c57600080fd5b610154610585565b60405180848152602001838152602001828152602001935050505060405180910390f35b341561018357600080fd5b6101b8600480803573ffffffffffffffffffffffffffffffffffffffff169060200190919080359060200190919050506105c5565b005b34156101c557600080fd5b6101f1600480803573ffffffffffffffffffffffffffffffffffffffff169060200190919050506108b5565b005b34156101fe57600080fd5b61022a600480803573ffffffffffffffffffffffffffffffffffffffff16906020019091905050610cd5565b604051808381526020018281526020019250505060405180910390f35b341561025257600080fd5b61025a610dbc565b604051808473ffffffffffffffffffffffffffffffffffffffff1673ffffffffffffffffffffffffffffffffffffffff168152602001838152602001828152602001935050505060405180910390f35b34156102b557600080fd5b6102bd610e64565b604051808273ffffffffffffffffffffffffffffffffffffffff1673ffffffffffffffffffffffffffffffffffffffff16815260200191505060405180910390f35b341561030a57600080fd5b6103206004808035906020019091905050610e89565b604051808473ffffffffffffffffffffffffffffffffffffffff1673ffffffffffffffffffffffffffffffffffffffff168152602001838152602001828152602001935050505060405180910390f35b610378610f23565b6040518082815260200191505060405180910390f35b341561039957600080fd5b6103af6004808035906020019091905050610feb565b604051808273ffffffffffffffffffffffffffffffffffffffff1673ffffffffffffffffffffffffffffffffffffffff16815260200191505060405180910390f35b34156103fc57600080fd5b61040461102a565b005b341561041157600080fd5b61043d600480803573ffffffffffffffffffffffffffffffffffffffff16906020019091905050611298565b604051808473ffffffffffffffffffffffffffffffffffffffff1673ffffffffffffffffffffffffffffffffffffffff168152602001838152602001828152602001935050505060405180910390f35b341561049857600080fd5b6104c4600480803573ffffffffffffffffffffffffffffffffffffffff169060200190919050506112e2565b005b34156104d157600080fd5b610506600480803573ffffffffffffffffffffffffffffffffffffffff16906020019091908035906020019091905050611697565b005b341561051357600080fd5b61053f600480803573ffffffffffffffffffffffffffffffffffffffff16906020019091905050611985565b005b60008061054c610552565b11905090565b60006105806003543073ffffffffffffffffffffffffffffffffffffffff1631611ada90919063ffffffff16565b905090565b60008060003073ffffffffffffffffffffffffffffffffffffffff16319250600454905060006003541415156105c0576105bd610552565b91505b909192565b6000806000809054906101000a900473ffffffffffffffffffffffffffffffffffffffff1673ffffffffffffffffffffffffffffffffffffffff163373ffffffffffffffffffffffffffffffffffffffff1614151561062357600080fd5b836000600260008373ffffffffffffffffffffffffffffffffffffffff1673ffffffffffffffffffffffffffffffffffffffff168152602001908152602001600020905060008160000160009054906101000a900473ffffffffffffffffffffffffffffffffffffffff1673ffffffffffffffffffffffffffffffffffffffff16141515156106ae57fe5b600260008773ffffffffffffffffffffffffffffffffffffffff1673ffffffffffffffffffffffffffffffffffffffff168152602001908152602001600020935061076e84606060405190810160405290816000820160009054906101000a900473ffffffffffffffffffffffffffffffffffffffff1673ffffffffffffffffffffffffffffffffffffffff1673ffffffffffffffffffffffffffffffffffffffff16815260200160018201548152602001600282015481525050611af5565b610789670de0b6b3a764000086611ba590919063ffffffff16565b92506107b684600101546107a885600354611be090919063ffffffff16565b611bfe90919063ffffffff16565b60038190555082600260008873ffffffffffffffffffffffffffffffffffffffff1673ffffffffffffffffffffffffffffffffffffffff1681526020019081526020016000206001018190555042600260008873ffffffffffffffffffffffffffffffffffffffff1673ffffffffffffffffffffffffffffffffffffffff168152602001908152602001600020600201819055507f488bacda22fcd72c26e796890d62491cef03e8de61cad515b1826a683f2e760f86604051808273ffffffffffffffffffffffffffffffffffffffff1673ffffffffffffffffffffffffffffffffffffffff16815260200191505060405180910390a1505050505050565b600080336000600260008373ffffffffffffffffffffffffffffffffffffffff1673ffffffffffffffffffffffffffffffffffffffff168152602001908152602001600020905060008160000160009054906101000a900473ffffffffffffffffffffffffffffffffffffffff1673ffffffffffffffffffffffffffffffffffffffff161415151561094357fe5b846000808273ffffffffffffffffffffffffffffffffffffffff161415151561096857fe5b600260008373ffffffffffffffffffffffffffffffffffffffff1673ffffffffffffffffffffffffffffffffffffffff168152602001908152602001600020905060008160000160009054906101000a900473ffffffffffffffffffffffffffffffffffffffff1673ffffffffffffffffffffffffffffffffffffffff161415156109ef57fe5b86600080600260008473ffffffffffffffffffffffffffffffffffffffff1673ffffffffffffffffffffffffffffffffffffffff1681526020019081526020016000209150610a4c603c8360020154611be090919063ffffffff16565b90504281101515610a5957fe5b600260003373ffffffffffffffffffffffffffffffffffffffff1673ffffffffffffffffffffffffffffffffffffffff1681526020019081526020016000209850610b1989606060405190810160405290816000820160009054906101000a900473ffffffffffffffffffffffffffffffffffffffff1673ffffffffffffffffffffffffffffffffffffffff1673ffffffffffffffffffffffffffffffffffffffff16815260200160018201548152602001600282015481525050611af5565b6060604051908101604052808b73ffffffffffffffffffffffffffffffffffffffff1681526020018a60010154815260200142815250600260008c73ffffffffffffffffffffffffffffffffffffffff1673ffffffffffffffffffffffffffffffffffffffff16815260200190815260200160002060008201518160000160006101000a81548173ffffffffffffffffffffffffffffffffffffffff021916908373ffffffffffffffffffffffffffffffffffffffff1602179055506020820151816001015560408201518160020155905050600260003373ffffffffffffffffffffffffffffffffffffffff1673ffffffffffffffffffffffffffffffffffffffff168152602001908152602001600020600080820160006101000a81549073ffffffffffffffffffffffffffffffffffffffff0219169055600182016000905560028201600090555050610c6e33611c17565b975033600189815481101515610c8057fe5b906000526020600020900160006101000a81548173ffffffffffffffffffffffffffffffffffffffff021916908373ffffffffffffffffffffffffffffffffffffffff16021790555050505050505050505050565b6000806000836000600260008373ffffffffffffffffffffffffffffffffffffffff1673ffffffffffffffffffffffffffffffffffffffff168152602001908152602001600020905060008160000160009054906101000a900473ffffffffffffffffffffffffffffffffffffffff1673ffffffffffffffffffffffffffffffffffffffff1614151515610d6557fe5b600260008773ffffffffffffffffffffffffffffffffffffffff1673ffffffffffffffffffffffffffffffffffffffff16815260200190815260200160002092508260010154945082600201549350505050915091565b60008060008060009054906101000a900473ffffffffffffffffffffffffffffffffffffffff1673ffffffffffffffffffffffffffffffffffffffff163373ffffffffffffffffffffffffffffffffffffffff16141515610e1c57600080fd5b6000809054906101000a900473ffffffffffffffffffffffffffffffffffffffff16925060035490503073ffffffffffffffffffffffffffffffffffffffff16319150909192565b6000809054906101000a900473ffffffffffffffffffffffffffffffffffffffff1681565b600080600080600185815481101515610e9e57fe5b906000526020600020900160009054906101000a900473ffffffffffffffffffffffffffffffffffffffff169350600260008573ffffffffffffffffffffffffffffffffffffffff1673ffffffffffffffffffffffffffffffffffffffff16815260200190815260200160002090508060010154925080600201549150509193909250565b60008060009054906101000a900473ffffffffffffffffffffffffffffffffffffffff1673ffffffffffffffffffffffffffffffffffffffff163373ffffffffffffffffffffffffffffffffffffffff16141515610f8057600080fd5b7fbe1e4b1ad5d83f75925e2f00ab046fbab2ee90d0dbdf7f2049d037a48ada09f33073ffffffffffffffffffffffffffffffffffffffff16316040518082815260200191505060405180910390a13073ffffffffffffffffffffffffffffffffffffffff1631905090565b600181815481101515610ffa57fe5b90600052602060002090016000915054906101000a900473ffffffffffffffffffffffffffffffffffffffff1681565b600080336000600260008373ffffffffffffffffffffffffffffffffffffffff1673ffffffffffffffffffffffffffffffffffffffff168152602001908152602001600020905060008160000160009054906101000a900473ffffffffffffffffffffffffffffffffffffffff1673ffffffffffffffffffffffffffffffffffffffff16141515156110b857fe5b33600080600260008473ffffffffffffffffffffffffffffffffffffffff1673ffffffffffffffffffffffffffffffffffffffff1681526020019081526020016000209150611115603c8360020154611be090919063ffffffff16565b9050428110151561112257fe5b600260003373ffffffffffffffffffffffffffffffffffffffff1673ffffffffffffffffffffffffffffffffffffffff168152602001908152602001600020965061117b603c8860020154611be090919063ffffffff16565b955085600260003373ffffffffffffffffffffffffffffffffffffffff1673ffffffffffffffffffffffffffffffffffffffff168152602001908152602001600020600201819055508660000160009054906101000a900473ffffffffffffffffffffffffffffffffffffffff1673ffffffffffffffffffffffffffffffffffffffff166108fc88600101549081150290604051600060405180830381858888f19350505050151561122c57600080fd5b7f7decdec0fa70b21ecd45a15b04d5f5313c8fc915a1b3c034aa2bffa4fc8fc59133604051808273ffffffffffffffffffffffffffffffffffffffff1673ffffffffffffffffffffffffffffffffffffffff16815260200191505060405180910390a150505050505050565b60026020528060005260406000206000915090508060000160009054906101000a900473ffffffffffffffffffffffffffffffffffffffff16908060010154908060020154905083565b6000806000809054906101000a900473ffffffffffffffffffffffffffffffffffffffff1673ffffffffffffffffffffffffffffffffffffffff163373ffffffffffffffffffffffffffffffffffffffff1614151561134057600080fd5b826000600260008373ffffffffffffffffffffffffffffffffffffffff1673ffffffffffffffffffffffffffffffffffffffff168152602001908152602001600020905060008160000160009054906101000a900473ffffffffffffffffffffffffffffffffffffffff1673ffffffffffffffffffffffffffffffffffffffff16141515156113cb57fe5b600260008673ffffffffffffffffffffffffffffffffffffffff1673ffffffffffffffffffffffffffffffffffffffff168152602001908152602001600020935061148b84606060405190810160405290816000820160009054906101000a900473ffffffffffffffffffffffffffffffffffffffff1673ffffffffffffffffffffffffffffffffffffffff1673ffffffffffffffffffffffffffffffffffffffff16815260200160018201548152602001600282015481525050611af5565b8360010154600360008282540392505081905550600260008673ffffffffffffffffffffffffffffffffffffffff1673ffffffffffffffffffffffffffffffffffffffff168152602001908152602001600020600080820160006101000a81549073ffffffffffffffffffffffffffffffffffffffff021916905560018201600090556002820160009055505061152e6001600454611bfe90919063ffffffff16565b60048190555061153d85611c17565b925060018381548110151561154e57fe5b906000526020600020900160006101000a81549073ffffffffffffffffffffffffffffffffffffffff021916905560018080805490500381548110151561159157fe5b906000526020600020900160009054906101000a900473ffffffffffffffffffffffffffffffffffffffff166001848154811015156115cc57fe5b906000526020600020900160006101000a81548173ffffffffffffffffffffffffffffffffffffffff021916908373ffffffffffffffffffffffffffffffffffffffff1602179055506001808181805490500391508161162c9190611cb6565b507f52d6abdca596d1c4a93f3df131dcf3a55ecaaa92ab3a0be58a15b98aab12d49b85604051808273ffffffffffffffffffffffffffffffffffffffff1673ffffffffffffffffffffffffffffffffffffffff16815260200191505060405180910390a15050505050565b60008060009054906101000a900473ffffffffffffffffffffffffffffffffffffffff1673ffffffffffffffffffffffffffffffffffffffff163373ffffffffffffffffffffffffffffffffffffffff161415156116f457600080fd5b826000808273ffffffffffffffffffffffffffffffffffffffff161415151561171957fe5b600260008373ffffffffffffffffffffffffffffffffffffffff1673ffffffffffffffffffffffffffffffffffffffff168152602001908152602001600020905060008160000160009054906101000a900473ffffffffffffffffffffffffffffffffffffffff1673ffffffffffffffffffffffffffffffffffffffff161415156117a057fe5b6117bb670de0b6b3a764000085611ba590919063ffffffff16565b92506060604051908101604052808673ffffffffffffffffffffffffffffffffffffffff16815260200184815260200142815250600260008773ffffffffffffffffffffffffffffffffffffffff1673ffffffffffffffffffffffffffffffffffffffff16815260200190815260200160002060008201518160000160006101000a81548173ffffffffffffffffffffffffffffffffffffffff021916908373ffffffffffffffffffffffffffffffffffffffff1602179055506020820151816001015560408201518160020155905050826003600082825401925050819055506118b26001600454611be090919063ffffffff16565b600481905550600180548060010182816118cc9190611ce2565b9160005260206000209001600087909190916101000a81548173ffffffffffffffffffffffffffffffffffffffff021916908373ffffffffffffffffffffffffffffffffffffffff160217905550507f37e9308d0d750d43a2e5ef16b6d47b60b2741e12be41128ca3bec877db4f9dcb85604051808273ffffffffffffffffffffffffffffffffffffffff1673ffffffffffffffffffffffffffffffffffffffff16815260200191505060405180910390a15050505050565b6000809054906101000a900473ffffffffffffffffffffffffffffffffffffffff1673ffffffffffffffffffffffffffffffffffffffff163373ffffffffffffffffffffffffffffffffffffffff161415156119e057600080fd5b600073ffffffffffffffffffffffffffffffffffffffff168173ffffffffffffffffffffffffffffffffffffffff1614151515611a1c57600080fd5b8073ffffffffffffffffffffffffffffffffffffffff166000809054906101000a900473ffffffffffffffffffffffffffffffffffffffff1673ffffffffffffffffffffffffffffffffffffffff167f8be0079c531659141344cd1fd0a4f28419497f9722a3daafe3b4186f6b6457e060405160405180910390a3806000806101000a81548173ffffffffffffffffffffffffffffffffffffffff021916908373ffffffffffffffffffffffffffffffffffffffff16021790555050565b6000808284811515611ae857fe5b0490508091505092915050565b600080826000015173ffffffffffffffffffffffffffffffffffffffff16141515611ba157611b5a603c611b4c611b39856040015142611bfe90919063ffffffff16565b8560200151611ba590919063ffffffff16565b611ada90919063ffffffff16565b9050816000015173ffffffffffffffffffffffffffffffffffffffff166108fc829081150290604051600060405180830381858888f193505050501515611ba057600080fd5b5b5050565b6000806000841415611bba5760009150611bd9565b8284029050828482811515611bcb57fe5b04141515611bd557fe5b8091505b5092915050565b6000808284019050838110151515611bf457fe5b8091505092915050565b6000828211151515611c0c57fe5b818303905092915050565b600080600090505b600180549050811015611caf578273ffffffffffffffffffffffffffffffffffffffff16600182815481101515611c5257fe5b906000526020600020900160009054906101000a900473ffffffffffffffffffffffffffffffffffffffff1673ffffffffffffffffffffffffffffffffffffffff161415611ca257809150611cb0565b8080600101915050611c1f565b5b50919050565b815481835581811511611cdd57818360005260206000209182019101611cdc9190611d0e565b5b505050565b815481835581811511611d0957818360005260206000209182019101611d089190611d0e565b5b505050565b611d3091905b80821115611d2c576000816000905550600101611d14565b5090565b905600a165627a7a72305820a0547df2ab3e8364246eceb85e895163635bbe736c1926019ecf26b2d963b9be0029",
  "source": "pragma solidity ^0.4.18;\n\nimport \"./SafeMath.sol\";\nimport \"./Ownable.sol\";\n\ncontract Payroll is Ownable {\n    using SafeMath for uint;\n    struct Employee {\n        address id;\n        uint salary;\n        uint lastPayday;\n    }\n    \n    \n    uint constant payDuration = 60 seconds;\n    \n    address[] public employeeList;\n    // address owner;\n    \n    mapping (address => Employee) public employees;\n    uint salarysum = 0;\n    uint employeesCount = 0;\n\n    event NewEmployee(address employee);\n    event UpdateEmployee(address employee);\n    event RemoveEmployee(address employee);\n    event NewFund(uint balance);\n    event GetPaid(address employee);\n\n\n    \n    //初始化，设置owner,lastPayday\n    //function Payroll() public{\n    //    owner = msg.sender;\n    //}\n    \n    //modifier onlyOwner {\n    //    require(msg.sender == owner);\n    //    _;\n    //}\n    \n    //检查employeeId存在\n    modifier employeeExist(address employeeId){\n        Employee storage employee = employees[employeeId];\n        assert(employee.id != 0x0);\n        _;\n    }\n    \n    //检查employeeId不存在\n    modifier employeeNonExist(address employeeId){\n        assert(employeeId != 0x0);\n        Employee storage employee = employees[employeeId];\n        assert(employee.id == 0x0);\n        _;\n    }\n    \n    //检查是否到达结算周期\n    modifier moreThanpayDuration(address employeeId){\n        Employee storage employee = employees[employeeId];\n        uint nextPayday = employee.lastPayday.add(payDuration);\n        assert(nextPayday < now);\n        _;\n    }\n\n \n    //临时结算工资\n    function _partialPaid(Employee employee) private {\n        // require(msg.sender == owner);\n        if (employee.id != 0x0){\n            // uint payment = employee.salary * (now - employee.lastPayday) / payDuration;\n            uint payment = employee.salary.mul(now.sub(employee.lastPayday)).div(payDuration);\n            employee.id.transfer(payment);\n        }\n    }\n    \n\n        //查找成员，返回数组索引\n    function _findEmployee(address employeeId) private view returns (uint) {\n        for (uint i = 0; i < employeeList.length; i++){\n            if (employeeList[i] == employeeId){\n                return (i);\n            }\n        }\n    }\n\n    //添加员工信息\n    function addEmployee(address employeeId, uint salary) public onlyOwner employeeNonExist(employeeId){\n        uint sa = salary.mul(1 ether);\n        employees[employeeId] = Employee(employeeId,sa,now);\n        salarysum += sa;\n        employeesCount = employeesCount.add(1);\n        employeeList.push(employeeId);\n        NewEmployee(employeeId);\n    }\n    \n    //删除员工信息\n    function removeEmployee(address employeeId) public onlyOwner employeeExist(employeeId){\n        Employee storage employee = employees[employeeId];\n        _partialPaid(employee);\n        salarysum -= employee.salary;\n        delete employees[employeeId];\n        employeesCount = employeesCount.sub(1);\n        var index = _findEmployee(employeeId);\n        delete employeeList[index];\n        employeeList[index] = employeeList[employeeList.length-1];\n        employeeList.length -= 1;\n        RemoveEmployee(employeeId);\n        \n    }\n    \n    //更新员工工资\n    function updateEmployee(address employeeId, uint salary) public onlyOwner  employeeExist(employeeId){\n        Employee storage employee = employees[employeeId];\n        _partialPaid(employee);\n        uint sa = salary.mul(1 ether);\n        salarysum = salarysum.add(sa).sub(employee.salary);\n        employees[employeeId].salary = sa;\n        employees[employeeId].lastPayday = now;\n        UpdateEmployee(employeeId);\n    }\n    \n    //由员工自己更换员工地址，需要满足一个付款周期\n    function changePaymentAddress(address employeeId) public  employeeExist(msg.sender) employeeNonExist(employeeId) moreThanpayDuration(employeeId){\n        Employee storage employee = employees[msg.sender];\n        _partialPaid(employee);\n        \n        employees[employeeId] = Employee(employeeId,employee.salary,now);\n        delete employees[msg.sender];\n\n        var index = _findEmployee(msg.sender);\n        employeeList[index] = msg.sender;\n    }\n    \n    \n    //向合约中打款\n    function addFund() payable public onlyOwner returns (uint) {\n        NewFund(address(this).balance);\n        return address(this).balance;\n    }\n\n    //获取合约的信息，地址和余额\n    function getOwnerinfo() public onlyOwner view returns (address owneraddress,uint balance,uint salarytotal){\n        owneraddress = owner;\n        salarytotal = salarysum;\n        balance = address(this).balance;\n    }\n    \n    //根据address获取员工信息，地址和工资\n    function getEmployeeinfo(address employeeId) public view   employeeExist(employeeId) returns (uint salary,uint lastPayday){\n        Employee storage employee = employees[employeeId];\n        salary = employee.salary;\n        lastPayday = employee.lastPayday;\n    }\n\n    //根据数组ID获取员工信息，地址和工资\n    function checkEmployee(uint index) public view  returns (address employeeId,uint salary,uint lastPayday){\n        employeeId = employeeList[index];\n        var employee = employees[employeeId];\n        salary = employee.salary;\n        lastPayday = employee.lastPayday;\n    }\n\n\n    \n    \n    //计算合约的余额能支付多少次工资\n    function calculateRunway() public view returns (uint) {\n        return address(this).balance.div(salarysum);\n    }\n    \n    //确认当前余额能否支付下一次工资\n    function hasEnoughFund() public view returns (bool) {\n        return calculateRunway() > 0;\n    }\n    \n    //员工向合约申请工资,含账号地址验证\n    function getPaid() public  employeeExist(msg.sender) moreThanpayDuration(msg.sender){\n        Employee storage employee = employees[msg.sender];\n        \n        uint nextPayday = employee.lastPayday.add(payDuration);\n\n        employees[msg.sender].lastPayday = nextPayday;\n        employee.id.transfer(employee.salary);\n        GetPaid(msg.sender);\n\n    }\n\n    //获取合约的信息，地址和余额，和员工人数\n    function getInfo() public view returns (uint balance,uint runway,uint totalemployees){\n        balance = address(this).balance;\n        totalemployees = employeesCount;\n        if (salarysum != 0x0) {\n            runway = calculateRunway();\n        }\n    }\n\n}",
  "sourcePath": "/home/juicebox/lesson5/contracts/Payroll.sol",
  "compiler": {
    "name": "solc",
    "version": "0.4.19+commit.c4cbbb05.Emscripten.clang"
  },
  "schemaVersion": "2.0.0",
  "updatedAt": "2018-03-29T14:28:48.295Z"
}